{
  "_format": "hh-sol-artifact-1",
  "contractName": "MockUsdt",
  "sourceName": "contracts/poker/MockUsdt.sol",
  "abi": [
    {
      "inputs": [],
      "stateMutability": "nonpayable",
      "type": "constructor"
    },
    {
      "anonymous": false,
      "inputs": [
        {
          "indexed": true,
          "internalType": "address",
          "name": "owner",
          "type": "address"
        },
        {
          "indexed": true,
          "internalType": "address",
          "name": "spender",
          "type": "address"
        },
        {
          "indexed": false,
          "internalType": "uint256",
          "name": "value",
          "type": "uint256"
        }
      ],
      "name": "Approval",
      "type": "event"
    },
    {
      "anonymous": false,
      "inputs": [
        {
          "indexed": true,
          "internalType": "address",
          "name": "from",
          "type": "address"
        },
        {
          "indexed": true,
          "internalType": "address",
          "name": "to",
          "type": "address"
        },
        {
          "indexed": false,
          "internalType": "uint256",
          "name": "value",
          "type": "uint256"
        }
      ],
      "name": "Transfer",
      "type": "event"
    },
    {
      "inputs": [
        {
          "internalType": "address",
          "name": "owner",
          "type": "address"
        },
        {
          "internalType": "address",
          "name": "spender",
          "type": "address"
        }
      ],
      "name": "allowance",
      "outputs": [
        {
          "internalType": "uint256",
          "name": "",
          "type": "uint256"
        }
      ],
      "stateMutability": "view",
      "type": "function"
    },
    {
      "inputs": [
        {
          "internalType": "address",
          "name": "spender",
          "type": "address"
        },
        {
          "internalType": "uint256",
          "name": "amount",
          "type": "uint256"
        }
      ],
      "name": "approve",
      "outputs": [
        {
          "internalType": "bool",
          "name": "",
          "type": "bool"
        }
      ],
      "stateMutability": "nonpayable",
      "type": "function"
    },
    {
      "inputs": [
        {
          "internalType": "address",
          "name": "account",
          "type": "address"
        }
      ],
      "name": "balanceOf",
      "outputs": [
        {
          "internalType": "uint256",
          "name": "",
          "type": "uint256"
        }
      ],
      "stateMutability": "view",
      "type": "function"
    },
    {
      "inputs": [],
      "name": "decimals",
      "outputs": [
        {
          "internalType": "uint8",
          "name": "",
          "type": "uint8"
        }
      ],
      "stateMutability": "view",
      "type": "function"
    },
    {
      "inputs": [
        {
          "internalType": "address",
          "name": "spender",
          "type": "address"
        },
        {
          "internalType": "uint256",
          "name": "subtractedValue",
          "type": "uint256"
        }
      ],
      "name": "decreaseAllowance",
      "outputs": [
        {
          "internalType": "bool",
          "name": "",
          "type": "bool"
        }
      ],
      "stateMutability": "nonpayable",
      "type": "function"
    },
    {
      "inputs": [
        {
          "internalType": "address",
          "name": "spender",
          "type": "address"
        },
        {
          "internalType": "uint256",
          "name": "addedValue",
          "type": "uint256"
        }
      ],
      "name": "increaseAllowance",
      "outputs": [
        {
          "internalType": "bool",
          "name": "",
          "type": "bool"
        }
      ],
      "stateMutability": "nonpayable",
      "type": "function"
    },
    {
      "inputs": [],
      "name": "name",
      "outputs": [
        {
          "internalType": "string",
          "name": "",
          "type": "string"
        }
      ],
      "stateMutability": "view",
      "type": "function"
    },
    {
      "inputs": [],
      "name": "nonce",
      "outputs": [
        {
          "internalType": "uint256",
          "name": "",
          "type": "uint256"
        }
      ],
      "stateMutability": "view",
      "type": "function"
    },
    {
      "inputs": [],
      "name": "symbol",
      "outputs": [
        {
          "internalType": "string",
          "name": "",
          "type": "string"
        }
      ],
      "stateMutability": "view",
      "type": "function"
    },
    {
      "inputs": [],
      "name": "totalSupply",
      "outputs": [
        {
          "internalType": "uint256",
          "name": "",
          "type": "uint256"
        }
      ],
      "stateMutability": "view",
      "type": "function"
    },
    {
      "inputs": [
        {
          "internalType": "address",
          "name": "to",
          "type": "address"
        },
        {
          "internalType": "uint256",
          "name": "amount",
          "type": "uint256"
        }
      ],
      "name": "transfer",
      "outputs": [
        {
          "internalType": "bool",
          "name": "",
          "type": "bool"
        }
      ],
      "stateMutability": "nonpayable",
      "type": "function"
    },
    {
      "inputs": [
        {
          "internalType": "address",
          "name": "from",
          "type": "address"
        },
        {
          "internalType": "address",
          "name": "to",
          "type": "address"
        },
        {
          "internalType": "uint256",
          "name": "amount",
          "type": "uint256"
        }
      ],
      "name": "transferFrom",
      "outputs": [
        {
          "internalType": "bool",
          "name": "",
          "type": "bool"
        }
      ],
      "stateMutability": "nonpayable",
      "type": "function"
    }
  ],
  "bytecode": "0x60806040523480156200001157600080fd5b506040805180820182526008815267135bd8dad55cd91d60c21b602080830191825283518085019094526005845264135554d11560da1b9084015281519192916200005f91600391620001a2565b50805162000075906004906020840190620001a2565b505050620000af336200008d620000b560201b60201c565b6200009a90600a6200035d565b620000a990620f424062000375565b620000ba565b620003ee565b601290565b6001600160a01b038216620001155760405162461bcd60e51b815260206004820152601f60248201527f45524332303a206d696e7420746f20746865207a65726f206164647265737300604482015260640160405180910390fd5b806002600082825462000129919062000397565b90915550506001600160a01b038216600090815260208190526040812080548392906200015890849062000397565b90915550506040518181526001600160a01b038316906000907fddf252ad1be2c89b69c2b068fc378daa952ba7f163c4a11628f55a4df523b3ef9060200160405180910390a35050565b828054620001b090620003b2565b90600052602060002090601f016020900481019282620001d457600085556200021f565b82601f10620001ef57805160ff19168380011785556200021f565b828001600101855582156200021f579182015b828111156200021f57825182559160200191906001019062000202565b506200022d92915062000231565b5090565b5b808211156200022d576000815560010162000232565b634e487b7160e01b600052601160045260246000fd5b600181815b808511156200029f57816000190482111562000283576200028362000248565b808516156200029157918102915b93841c939080029062000263565b509250929050565b600082620002b85750600162000357565b81620002c75750600062000357565b8160018114620002e05760028114620002eb576200030b565b600191505062000357565b60ff841115620002ff57620002ff62000248565b50506001821b62000357565b5060208310610133831016604e8410600b841016171562000330575081810a62000357565b6200033c83836200025e565b806000190482111562000353576200035362000248565b0290505b92915050565b60006200036e60ff841683620002a7565b9392505050565b600081600019048311821515161562000392576200039262000248565b500290565b60008219821115620003ad57620003ad62000248565b500190565b600181811c90821680620003c757607f821691505b602082108103620003e857634e487b7160e01b600052602260045260246000fd5b50919050565b61089880620003fe6000396000f3fe608060405234801561001057600080fd5b50600436106100b45760003560e01c806370a082311161007157806370a082311461014157806395d89b411461016a578063a457c2d714610172578063a9059cbb14610185578063affed0e014610198578063dd62ed3e1461019f57600080fd5b806306fdde03146100b9578063095ea7b3146100d757806318160ddd146100fa57806323b872dd1461010c578063313ce5671461011f578063395093511461012e575b600080fd5b6100c16101b2565b6040516100ce91906106d6565b60405180910390f35b6100ea6100e5366004610747565b610244565b60405190151581526020016100ce565b6002545b6040519081526020016100ce565b6100ea61011a366004610771565b61025c565b604051601281526020016100ce565b6100ea61013c366004610747565b610280565b6100fe61014f3660046107ad565b6001600160a01b031660009081526020819052604090205490565b6100c16102a2565b6100ea610180366004610747565b6102b1565b6100ea610193366004610747565b610331565b60026100fe565b6100fe6101ad3660046107cf565b61033f565b6060600380546101c190610802565b80601f01602080910402602001604051908101604052809291908181526020018280546101ed90610802565b801561023a5780601f1061020f5761010080835404028352916020019161023a565b820191906000526020600020905b81548152906001019060200180831161021d57829003601f168201915b5050505050905090565b60003361025281858561036a565b5060019392505050565b60003361026a85828561048e565b610275858585610508565b506001949350505050565b600033610252818585610293838361033f565b61029d919061083c565b61036a565b6060600480546101c190610802565b600033816102bf828661033f565b9050838110156103245760405162461bcd60e51b815260206004820152602560248201527f45524332303a2064656372656173656420616c6c6f77616e63652062656c6f77604482015264207a65726f60d81b60648201526084015b60405180910390fd5b610275828686840361036a565b600033610252818585610508565b6001600160a01b03918216600090815260016020908152604080832093909416825291909152205490565b6001600160a01b0383166103cc5760405162461bcd60e51b8152602060048201526024808201527f45524332303a20617070726f76652066726f6d20746865207a65726f206164646044820152637265737360e01b606482015260840161031b565b6001600160a01b03821661042d5760405162461bcd60e51b815260206004820152602260248201527f45524332303a20617070726f766520746f20746865207a65726f206164647265604482015261737360f01b606482015260840161031b565b6001600160a01b0383811660008181526001602090815260408083209487168084529482529182902085905590518481527f8c5be1e5ebec7d5bd14f71427d1e84f3dd0314c0f7b2291e5b200ac8c7c3b925910160405180910390a3505050565b600061049a848461033f565b9050600019811461050257818110156104f55760405162461bcd60e51b815260206004820152601d60248201527f45524332303a20696e73756666696369656e7420616c6c6f77616e6365000000604482015260640161031b565b610502848484840361036a565b50505050565b6001600160a01b03831661056c5760405162461bcd60e51b815260206004820152602560248201527f45524332303a207472616e736665722066726f6d20746865207a65726f206164604482015264647265737360d81b606482015260840161031b565b6001600160a01b0382166105ce5760405162461bcd60e51b815260206004820152602360248201527f45524332303a207472616e7366657220746f20746865207a65726f206164647260448201526265737360e81b606482015260840161031b565b6001600160a01b038316600090815260208190526040902054818110156106465760405162461bcd60e51b815260206004820152602660248201527f45524332303a207472616e7366657220616d6f756e7420657863656564732062604482015265616c616e636560d01b606482015260840161031b565b6001600160a01b0380851660009081526020819052604080822085850390559185168152908120805484929061067d90849061083c565b92505081905550826001600160a01b0316846001600160a01b03167fddf252ad1be2c89b69c2b068fc378daa952ba7f163c4a11628f55a4df523b3ef846040516106c991815260200190565b60405180910390a3610502565b600060208083528351808285015260005b81811015610703578581018301518582016040015282016106e7565b81811115610715576000604083870101525b50601f01601f1916929092016040019392505050565b80356001600160a01b038116811461074257600080fd5b919050565b6000806040838503121561075a57600080fd5b6107638361072b565b946020939093013593505050565b60008060006060848603121561078657600080fd5b61078f8461072b565b925061079d6020850161072b565b9150604084013590509250925092565b6000602082840312156107bf57600080fd5b6107c88261072b565b9392505050565b600080604083850312156107e257600080fd5b6107eb8361072b565b91506107f96020840161072b565b90509250929050565b600181811c9082168061081657607f821691505b60208210810361083657634e487b7160e01b600052602260045260246000fd5b50919050565b6000821982111561085d57634e487b7160e01b600052601160045260246000fd5b50019056fea264697066735822122075390339d23b125ef913ac8ef08bfcb68328df6bf9dd89cddff8dcfa3c61e7f264736f6c634300080e0033",
  "linkReferences": {},
  "deployedLinkReferences": {}
}