{
  "_format": "hh-sol-artifact-1",
  "contractName": "TexasPokerPayment",
  "sourceName": "contracts/poker/TexasPokerPayment.sol",
  "abi": [
    {
      "anonymous": false,
      "inputs": [
        {
          "indexed": true,
          "internalType": "address",
          "name": "previousOwner",
          "type": "address"
        },
        {
          "indexed": true,
          "internalType": "address",
          "name": "newOwner",
          "type": "address"
        }
      ],
      "name": "OwnershipTransferred",
      "type": "event"
    },
    {
      "anonymous": false,
      "inputs": [
        {
          "indexed": false,
          "internalType": "uint256",
          "name": "",
          "type": "uint256"
        },
        {
          "indexed": false,
          "internalType": "uint256",
          "name": "",
          "type": "uint256"
        }
      ],
      "name": "TopUp",
      "type": "event"
    },
    {
      "anonymous": false,
      "inputs": [
        {
          "indexed": false,
          "internalType": "uint256",
          "name": "",
          "type": "uint256"
        }
      ],
      "name": "Withdraw",
      "type": "event"
    },
    {
      "inputs": [],
      "name": "getBalance",
      "outputs": [
        {
          "internalType": "uint256",
          "name": "",
          "type": "uint256"
        }
      ],
      "stateMutability": "view",
      "type": "function"
    },
    {
      "inputs": [
        {
          "internalType": "uint256",
          "name": "orderId",
          "type": "uint256"
        }
      ],
      "name": "getOrderRecord",
      "outputs": [
        {
          "internalType": "bool",
          "name": "",
          "type": "bool"
        }
      ],
      "stateMutability": "view",
      "type": "function"
    },
    {
      "inputs": [],
      "name": "owner",
      "outputs": [
        {
          "internalType": "address",
          "name": "",
          "type": "address"
        }
      ],
      "stateMutability": "view",
      "type": "function"
    },
    {
      "inputs": [],
      "name": "renounceOwnership",
      "outputs": [],
      "stateMutability": "nonpayable",
      "type": "function"
    },
    {
      "inputs": [
        {
          "internalType": "uint256",
          "name": "orderId",
          "type": "uint256"
        },
        {
          "internalType": "address",
          "name": "currencyContractAddress",
          "type": "address"
        },
        {
          "internalType": "uint256",
          "name": "amount",
          "type": "uint256"
        }
      ],
      "name": "topUp",
      "outputs": [],
      "stateMutability": "nonpayable",
      "type": "function"
    },
    {
      "inputs": [
        {
          "internalType": "address",
          "name": "newOwner",
          "type": "address"
        }
      ],
      "name": "transferOwnership",
      "outputs": [],
      "stateMutability": "nonpayable",
      "type": "function"
    },
    {
      "inputs": [
        {
          "internalType": "uint256",
          "name": "orderId",
          "type": "uint256"
        },
        {
          "internalType": "address",
          "name": "currencyContractAddress",
          "type": "address"
        },
        {
          "internalType": "uint256",
          "name": "amount",
          "type": "uint256"
        },
        {
          "internalType": "uint256",
          "name": "deadline",
          "type": "uint256"
        },
        {
          "internalType": "bytes",
          "name": "sign",
          "type": "bytes"
        }
      ],
      "name": "withdraw",
      "outputs": [],
      "stateMutability": "nonpayable",
      "type": "function"
    },
    {
      "inputs": [],
      "name": "withdrawFromVault",
      "outputs": [],
      "stateMutability": "nonpayable",
      "type": "function"
    }
  ],
  "bytecode": "0x608060405234801561001057600080fd5b5061001a3361001f565b61006f565b600080546001600160a01b038381166001600160a01b0319831681178455604051919092169283917f8be0079c531659141344cd1fd0a4f28419497f9722a3daafe3b4186f6b6457e09190a35050565b610c308061007e6000396000f3fe608060405234801561001057600080fd5b50600436106100885760003560e01c80638da5cb5b1161005b5780638da5cb5b146100cd578063de66e009146100e8578063f2fde38b1461011b578063ff755e4d1461012e57600080fd5b8063091dffca1461008d57806312065fe01461009757806316645824146100b2578063715018a6146100c5575b600080fd5b610095610141565b005b61009f6101f8565b6040519081526020015b60405180910390f35b6100956100c03660046109e9565b61026a565b610095610320565b6000546040516001600160a01b0390911681526020016100a9565b61010b6100f6366004610a1e565b60009081526002602052604090205460ff1690565b60405190151581526020016100a9565b610095610129366004610a37565b610356565b61009561013c366004610a6f565b6103f1565b6000546001600160a01b031633146101745760405162461bcd60e51b815260040161016b90610b4e565b60405180910390fd5b600061017e6101f8565b60015460405163a9059cbb60e01b8152336004820152602481018390529192506001600160a01b03169063a9059cbb906044016020604051808303816000875af11580156101d0573d6000803e3d6000fd5b505050506040513d601f19601f820116820180604052508101906101f49190610b83565b5050565b6001546040516370a0823160e01b81523060048201526000916001600160a01b0316906370a0823190602401602060405180830381865afa158015610241573d6000803e3d6000fd5b505050506040513d601f19601f820116820180604052508101906102659190610ba5565b905090565b6040516323b872dd60e01b8152336004820152306024820152604481018290526001600160a01b038316906323b872dd906064016020604051808303816000875af11580156102bd573d6000803e3d6000fd5b505050506040513d601f19601f820116820180604052508101906102e19190610b83565b5060408051848152602081018390527f9580ef1bd2c88526f7c878185e323d2bef5d3f0f9471577f3e3a2bfdb87763ef910160405180910390a1505050565b6000546001600160a01b0316331461034a5760405162461bcd60e51b815260040161016b90610b4e565b610354600061060f565b565b6000546001600160a01b031633146103805760405162461bcd60e51b815260040161016b90610b4e565b6001600160a01b0381166103e55760405162461bcd60e51b815260206004820152602660248201527f4f776e61626c653a206e6577206f776e657220697320746865207a65726f206160448201526564647265737360d01b606482015260840161016b565b6103ee8161060f565b50565b60008581526002602052604090205460ff16156104475760405162461bcd60e51b81526020600482015260146024820152734f7264657220616c72656164792065786973747360601b604482015260640161016b565b6040516bffffffffffffffffffffffff1933606090811b821660208401526034830188905286901b166054820152606881018490526088810183905260009060a80160408051601f1981840301815291905280516020909101209050730ac584a240fbae9e6403c569a7ce29fc5c4d89126104c2828461065f565b6001600160a01b0316146105095760405162461bcd60e51b815260206004820152600e60248201526d24b73b30b634b21039b4b3b732b960911b604482015260640161016b565b4283116105425760405162461bcd60e51b8152602060048201526007602482015266115e1c1a5c995960ca1b604482015260640161016b565b60405163a9059cbb60e01b8152336004820152602481018590526001600160a01b0386169063a9059cbb906044016020604051808303816000875af115801561058f573d6000803e3d6000fd5b505050506040513d601f19601f820116820180604052508101906105b39190610b83565b5060008681526002602052604090819020805460ff19166001179055517f5b6b431d4476a211bb7d41c20d1aab9ae2321deee0d20be3d9fc9b1093fa6e3d906105ff9088815260200190565b60405180910390a1505050505050565b600080546001600160a01b038381166001600160a01b0319831681178455604051919092169283917f8be0079c531659141344cd1fd0a4f28419497f9722a3daafe3b4186f6b6457e09190a35050565b600080600061066e8585610683565b9150915061067b816106f1565b509392505050565b60008082516041036106b95760208301516040840151606085015160001a6106ad878285856108a7565b945094505050506106ea565b82516040036106e257602083015160408401516106d7868383610994565b9350935050506106ea565b506000905060025b9250929050565b600081600481111561070557610705610bbe565b0361070d5750565b600181600481111561072157610721610bbe565b0361076e5760405162461bcd60e51b815260206004820152601860248201527f45434453413a20696e76616c6964207369676e61747572650000000000000000604482015260640161016b565b600281600481111561078257610782610bbe565b036107cf5760405162461bcd60e51b815260206004820152601f60248201527f45434453413a20696e76616c6964207369676e6174757265206c656e67746800604482015260640161016b565b60038160048111156107e3576107e3610bbe565b0361083b5760405162461bcd60e51b815260206004820152602260248201527f45434453413a20696e76616c6964207369676e6174757265202773272076616c604482015261756560f01b606482015260840161016b565b600481600481111561084f5761084f610bbe565b036103ee5760405162461bcd60e51b815260206004820152602260248201527f45434453413a20696e76616c6964207369676e6174757265202776272076616c604482015261756560f01b606482015260840161016b565b6000807f7fffffffffffffffffffffffffffffff5d576e7357a4501ddfe92f46681b20a08311156108de575060009050600361098b565b8460ff16601b141580156108f657508460ff16601c14155b15610907575060009050600461098b565b6040805160008082526020820180845289905260ff881692820192909252606081018690526080810185905260019060a0016020604051602081039080840390855afa15801561095b573d6000803e3d6000fd5b5050604051601f1901519150506001600160a01b0381166109845760006001925092505061098b565b9150600090505b94509492505050565b6000806001600160ff1b038316816109b160ff86901c601b610bd4565b90506109bf878288856108a7565b935093505050935093915050565b80356001600160a01b03811681146109e457600080fd5b919050565b6000806000606084860312156109fe57600080fd5b83359250610a0e602085016109cd565b9150604084013590509250925092565b600060208284031215610a3057600080fd5b5035919050565b600060208284031215610a4957600080fd5b610a52826109cd565b9392505050565b634e487b7160e01b600052604160045260246000fd5b600080600080600060a08688031215610a8757600080fd5b85359450610a97602087016109cd565b93506040860135925060608601359150608086013567ffffffffffffffff80821115610ac257600080fd5b818801915088601f830112610ad657600080fd5b813581811115610ae857610ae8610a59565b604051601f8201601f19908116603f01168101908382118183101715610b1057610b10610a59565b816040528281528b6020848701011115610b2957600080fd5b8260208601602083013760006020848301015280955050505050509295509295909350565b6020808252818101527f4f776e61626c653a2063616c6c6572206973206e6f7420746865206f776e6572604082015260600190565b600060208284031215610b9557600080fd5b81518015158114610a5257600080fd5b600060208284031215610bb757600080fd5b5051919050565b634e487b7160e01b600052602160045260246000fd5b60008219821115610bf557634e487b7160e01b600052601160045260246000fd5b50019056fea26469706673582212205807e76ebf2bb84fe2f182b873ee7413ac143636ad43d98955ccf1724ef18b7164736f6c634300080e0033",
  "linkReferences": {},
  "deployedLinkReferences": {}
}